:100000000C9434000C943E000C943E000C943E0082
:100010000C943E000C943E000C943E000C943E0068
:100020000C943E000C943E000C943E000C943E0058
:100030000C943E000C943E000C943E000C943E0048
:100040000C943E000C943E000C943E000C943E0038
:100050000C943E000C943E000C943E000C943E0028
:100060000C943E000C943E0011241FBECFEFD8E04C
:10007000DEBFCDBF0E9440000C9492000C940000A3
:100080008FEF84B915B88AEA75E562E95BED41E85E
:100090003EE72CEC93E385B9EFE3FFE13197F1F70D
:1000A00000C0000075B9EFE3FFE13197F1F700C040
:1000B000000065B9EFE3FFE13197F1F700C0000000
:1000C00055B9EFE3FFE13197F1F700C0000045B902
:1000D000EFE3FFE13197F1F700C0000035B9EFE33E
:1000E000FFE13197F1F700C0000085B9EFE3FFE1D0
:1000F0003197F1F700C0000025B9EFE3FFE1319738
:10010000F1F700C0000095B9EFE3FFE13197F1F797
:1001100000C0000015B8EFE3FCE93197F1F700C02B
:080120000000B9CFF894FFCFF5
:00000001FF
